:0300000002088370
:0C088300787FE4F6D8FD758109020800BA
:1008520075A0057580057F32FE120863E4F5A0F5E8
:010862008015
:10086300E4FDFCC3ED9FEC9E5015E4FBFA0BBB00CB
:0F087300010ABA04F8BBFBF50DBD00010C80E4CF
:010882002253
:10080000E5905403750800F50964014508700C1261
:10081000085275A006758006120863E50964024552
:1008200008700C12085275A009758009120863E55A
:100830000964034508700C12085275A009758009F7
:10084000120863E509450870B775A00A75800A02A9
:0208500008009E
:00000001FF
